:020000001628C0
:0E0006008312031321088A00200882000800DC
:1000140003208A110A128000840AA00A0319A10A83
:08002400F003031D0A28080087
:10002C00831603138E158501F03086000130831280
:10003C0086008501073083169C00013083128600F0
:10004C000608113A031D3928013085000230FB00E7
:10005C000430FC00BA30FD00FD0B3228FC0B3228BA
:10006C00FB0B322800000608213A031D3F28023002
:10007C0085000608413A031D4528033085000230EF
:10008C0086000608123A031D4D2804308500060828
:10009C00223A031D5328053085000608423A031DF9
:1000AC00592806308500043086000608143A031DD2
:1000BC006128073085000608243A031D672808309C
:1000CC0085000608443A031D6D2809308500083068
:1000DC0086000608183A031D75280A3085000608A4
:1000EC00283A031D7B280B3085000608483A031D6F
:1000FC0081280C3085000330FC009730FD00FD0B8F
:10010C008528FC0B852800000000850123288D28FC
:02400E004A2F37
:00000001FF
