:100000000C9463000C948B000C948B000C948B006C
:100010000C948B000C948B000C948B000C948B0034
:100020000C948B000C948B000C948B000C948B0024
:100030000C948B000C948B000C948B000C948B0014
:100040000C9445030C948B000C94BF040C94110584
:100050000C948B000C948B000C948B000C948B00F4
:100060000C948B000C948B000000000024002700EF
:100070002A0000000000250028002B0000000000DE
:1000800023002600290004040404040404040202DA
:100090000202020203030303030301020408102007
:1000A0004080010204081020010204081020000012
:1000B0000007000201000003040600000000000029
:1000C00000008D00800611241FBECFEFD8E0DEBFF8
:1000D000CDBF12E0A0E0B1E0E4E1FFE002C0059096
:1000E0000D92A036B107D9F713E0A0E6B2E001C047
:1000F0001D92A834B107E1F710E0C6ECD0E004C0CF
:100100002297FE010E948407C23CD107C9F70E94D2
:10011000D7060C9488070C940000CF92EF920F93AF
:1001200080E692E06CE04BE025E004E053E0E52E51
:1001300032E0C32E0E940C030F91EF90CF900895F0
:100140000F931F93CF93DF93843249F41092780278
:10015000109277028091790290917A0213C02091D7
:100160007702309178028C3299F4809179029091E3
:100170007A02FC01EE0FFF1FE558FD4F255030407D
:1001800031832083019690937A028093790242C052
:100190002F5F3F4F30937802209377022330310551
:1001A00039F420E030E08235B9F121E030E034C0AC
:1001B000263031057CF1F901E35FFE4F8083203367
:1001C000310541F580E692E00E944E0280E692E021
:1001D00060E040E00E941F02C0918D02D0918E022B
:1001E0008E010D5E1E4F08C080E692E0F80161911D
:1001F0008F010E941207219680918D0290918E02AC
:1002000005968C179D0784F760E573EC80E090E01D
:100210000E948D0320E030E0C901DF91CF911F9152
:100220000F91089586E293E00E94070680931201E1
:100230008F3F61F00E94A000892B41F0109278025C
:100240001092770210927A021092790208950F9319
:100250001F938091750260E00E942B048091100131
:1002600061E00E942B0486E293E040E855E260E002
:1002700070E00E944C0500E612E0C80160E142E037
:1002800020E00E945602C80160E071E00E9436073B
:1002900010921301109278021092770210927A0253
:1002A000109279021F910F9108950F931F938C0163
:1002B000FC01868160E00E946A0481E090E00E9477
:1002C000E603F801868161E00E946A0481E090E023
:1002D0000E94E603F801868160E00E946A0484E6D9
:1002E00090E00E94E6031F910F910895CF92DF9254
:1002F000EF92FF920F931F93CF93DF93D82EC92EC7
:10030000282F392FC9018C01C0E0D0E0E62EFF2450
:10031000F801878161E00E942B04B7010C2E02C016
:10032000759567950A94E2F76170F80187810E94DC
:100330006A0421960F5F1F4FC830D10549F78D2DF4
:100340009C2D0E945501DF91CF911F910F91FF903D
:10035000EF90DF90CF900895CF92DF92EF92FF92CF
:100360000F931F93CF93DF93D82EC92E282F392FA9
:10037000C9018C01C0E0D0E0E62EFF24F80187819E
:1003800061E00E942B04B7010C2E02C075956795A1
:100390000A94E2F76170F80187810E946A0421964D
:1003A0000F5F1F4FC430D10549F78D2D9C2D0E9442
:1003B0005501DF91CF911F910F91FF90EF90DF904A
:1003C000CF9008951F93CF93DF93EC01162F8C816C
:1003D000642F0E946A048D818F3F19F060E00E94B3
:1003E0006A048F8584FF05C0CE01612F0E947601CB
:1003F0000EC0612F70E084E0759567958A95E1F7EE
:10040000CE010E94AC01CE01612F0E94AC01DF91B0
:10041000CF911F91089541E00E94E20181E090E0B8
:10042000089540E00E94E2010895FC016089862F52
:100430008460808B6C60CF010E9411020895DF936D
:10044000CF93CDB7DEB728970FB6F894DEBF0FBEB7
:10045000CDBF9C01FE013196A7E4B2E088E00D908B
:1004600001928150E1F7F9018389481710F0482F74
:100470004150E42FF0E0EE0FFF1FEC0FFD1F8181D4
:10048000680F6068C9010E94110228960FB6F8949F
:10049000DEBF0FBECDBFCF91DF91089561E00E9416
:1004A000110280ED97E00E94E6030895CF93DF9359
:1004B000EC01423018F08F8588608F874B8B1C8A47
:1004C000222329F0413019F48F8584608F8780E5DD
:1004D00093EC0E94E6038C8160E00E946A048E81A6
:1004E00060E00E946A048D818F3F19F060E00E94F5
:1004F0006A046F8564FD1DC0CE0163E00E94AC01FB
:1005000084E991E10E94E603CE0163E00E94AC0120
:1005100084E991E10E94E603CE0163E00E94AC0110
:1005200086E990E00E94E603CE0162E00E94AC0101
:1005300016C06062CE010E94110284E991E10E941E
:10054000E6036F856062CE010E94110286E990E0A9
:100550000E94E6036F856062CE010E9411026F85E2
:100560006062CE010E94110284E0888BCE010E945D
:100570001502CE010E944E0282E0898BCE0166E018
:100580000E941102DF91CF9108956F927F928F9216
:10059000AF92CF92EF920F931F93DF93CF93CDB78C
:1005A000DEB73C01162F842FF30144832583068395
:1005B000E782C086A18682869D8593879E859487E3
:1005C0009F8595879889968761E00E942B04F301A7
:1005D00085818F3F19F061E00E942B04F301868131
:1005E00061E00E942B04112319F0F301178603C068
:1005F00080E1F3018787C30160E141E020E00E94D0
:100600005602CF91DF911F910F91EF90CF90AF9055
:100610008F907F906F9008958F92AF92CF92EF92CC
:100620000F931F93CF93DF93DC01362F542F722F3C
:10063000102FAE2C8C2C13961C921E92129783E4D2
:1006400092E011969C938E9300D000D0EDB7FEB748
:100650003196CDB7DEB71982118212821382CD0195
:1006600061E0432F2FEF052FE72EC12E0E94C50218
:100670000F900F900F900F90DF91CF911F910F91DE
:10068000EF90CF90AF908F9008951F920F920FB67A
:100690000F9211242F933F938F939F93AF93BF9308
:1006A0008091990290919A02A0919B02B0919C0234
:1006B00030919D020196A11DB11D232F2D5F2D3775
:1006C00020F02D570196A11DB11D20939D0280930E
:1006D000990290939A02A0939B02B0939C028091FE
:1006E000950290919602A0919702B091980201967E
:1006F000A11DB11D8093950290939602A09397023D
:10070000B0939802BF91AF919F918F913F912F919C
:100710000F900FBE0F901F9018959B01AC017FB7F3
:10072000F8948091950290919602A0919702B091D1
:10073000980266B5A89B05C06F3F19F00196A11DF0
:10074000B11D7FBFBA2FA92F982F8827860F911D23
:10075000A11DB11D62E0880F991FAA1FBB1F6A95DA
:10076000D1F7BC012DC0FFB7F8948091950290910C
:100770009602A0919702B0919802E6B5A89B05C099
:10078000EF3F19F00196A11DB11DFFBFBA2FA92F90
:10079000982F88278E0F911DA11DB11DE2E0880FB3
:1007A000991FAA1FBB1FEA95D1F7861B970B885E7E
:1007B0009340C8F2215030404040504068517C4F37
:1007C000211531054105510571F60895019739F05C
:1007D000880F991F880F991F02970197F1F70895C5
:1007E000789484B5826084BD84B5816084BD85B50C
:1007F000826085BD85B5816085BDEEE6F0E08081D3
:1008000081608083E1E8F0E01082808182608083F3
:10081000808181608083E0E8F0E080818160808376
:10082000E1EBF0E0808184608083E0EBF0E08081A8
:1008300081608083EAE7F0E080818460808380814A
:1008400082608083808181608083808180688083F2
:100850001092C1000895CF93DF93482F50E0CA0152
:1008600086569F4FFC0134914A575F4FFA0184919D
:10087000882369F190E0880F991FFC01E859FF4F28
:10088000A591B491FC01EE58FF4FC591D491662318
:1008900051F42FB7F8948C91932F909589238C93D2
:1008A000888189230BC0623061F42FB7F8948C9152
:1008B000932F909589238C938881832B88832FBFD6
:1008C00006C09FB7F8948C91832B8C939FBFDF91C8
:1008D000CF910895482F50E0CA0182559F4FFC01E7
:1008E0002491CA0186569F4FFC0194914A575F4F4D
:1008F000FA013491332309F440C0222351F123300B
:1009000071F0243028F42130A1F0223011F514C008
:100910002630B1F02730C1F02430D9F404C08091E2
:1009200080008F7703C0809180008F7D809380004E
:1009300010C084B58F7702C084B58F7D84BD09C097
:100940008091B0008F7703C08091B0008F7D80933D
:10095000B000E32FF0E0EE0FFF1FEE58FF4FA59120
:10096000B4912FB7F894662321F48C919095892344
:1009700002C08C91892B8C932FBF089508951F92EC
:100980000F920FB60F9211242F933F934F938F9393
:100990009F93EF93FF938091C00082FD1DC0409113
:1009A000C6002091DE023091DF022F5F3F4F2F7390
:1009B00030708091E0029091E1022817390771F0C0
:1009C000E091DE02F091DF02E256FD4F408330936A
:1009D000DF022093DE0202C08091C600FF91EF91FA
:1009E0009F918F914F913F912F910F900FBE0F903C
:1009F0001F901895E0913203F0913303E05CFF4FB4
:100A00008191919120813181805C9F4F821B930B5A
:100A100060E470E00E943907892B11F00E94BE0447
:100A200008951F920F920FB60F9211242F933F93A8
:100A30008F939F93EF93FF93209122033091230391
:100A400080912403909125032817390731F4809170
:100A5000C1008F7D8093C10014C0E0912403F09108
:100A60002503EE51FD4F20818091240390912503B1
:100A700001968F73907090932503809324032093A5
:100A8000C600FF91EF919F918F913F912F910F9011
:100A90000FBE0F901F901895AF92BF92DF92EF920A
:100AA000FF920F931F93CF93DF93EC017A018B0199
:100AB000DD24403081EE580780E0680780E0780749
:100AC00011F0DD24D39491E0A92EB12CEC89FD899D
:100AD000DD2069F0C50108A002C0880F991F0A94A3
:100AE000E2F7808360E079E08DE390E005C010825A
:100AF00060E874E88EE190E0A80197010E944C073D
:100B000021503040404050405695479537952795A5
:100B100080E12030380720F0DD2011F0DD24D6CF31
:100B2000E889F9893083EA89FB89208319A2EE8953
:100B3000FF89408121E030E0C9010C8C02C0880FA0
:100B4000991F0A94E2F7482B4083EE89FF89408180
:100B5000C9010D8C02C0880F991F0A94E2F7482B37
:100B60004083EE89FF894081C9010E8C02C0880F45
:100B7000991F0A94E2F7482B4083EE89FF89808110
:100B80000F8C02C0220F331F0A94E2F7209528230E
:100B90002083DF91CF911F910F91FF90EF90DF9015
:100BA000BF90AF900895DC011C96ED91FC911D97CC
:100BB000E05CFF4F8191919120813181805C9F4F5A
:100BC000821B930B60E470E00E9439070895DC01FA
:100BD0001C96ED91FC911D97E05CFF4F20813181C7
:100BE000E054F040DF01AE5BBF4F8D919C911197B7
:100BF0002817390719F42FEF3FEF07C08D919C910B
:100C0000E80FF91F8081282F30E0C9010895DC0129
:100C10001C96ED91FC911D97E05CFF4F2081318186
:100C2000E054F040DF01AE5BBF4F8D919C91119776
:100C30002817390719F42FEF3FEF10C08D919C91C1
:100C40001197E80FF91F20818D919C9111970196C2
:100C50008F73907011969C938E9330E0C901089524
:100C6000DC0191968C919197882339F05496ED91FF
:100C7000FC915597808186FFF9CF91961C9208953B
:100C8000CF93DF93EC01EE85FF85E05CFF4F208181
:100C90003181E054F0402F5F3F4F2F733070DF0100
:100CA000AE5BBF4F8D919C91119728173907D1F3F7
:100CB000E05CFF4F80819181E054F040E80FF91F24
:100CC0006083EE85FF85E05CFF4F31832083EE89F2
:100CD000FF89208181E090E00F8C02C0880F991F6E
:100CE0000A94E2F7282B208381E089A3EC89FD890F
:100CF00080818064808381E090E0DF91CF910895CE
:100D0000109229031092280388EE93E0A0E0B0E04F
:100D100080932A0390932B03A0932C03B0932D036D
:100D200083E592E090932703809326038EE992E077
:100D3000909333038093320382EE92E090933503D5
:100D40008093340385EC90E09093370380933603CF
:100D500084EC90E0909339038093380380EC90E02A
:100D600090933B0380933A0381EC90E090933D0392
:100D700080933C0382EC90E090933F0380933E038A
:100D800086EC90E0909341038093400384E080934D
:100D9000420383E08093430387E08093440385E02C
:100DA0008093450381E08093460308950895CF938F
:100DB000DF930E94F0030E94D6060E942701CAEF2B
:100DC000D4E00E9412012097E1F30E94FA04F9CFC7
:100DD000CF92DF92EF92FF920F931F93CF93DF9307
:100DE0007C016B018A01C0E0D0E00FC0D6016D919B
:100DF0006D01D701ED91FC910190F081E02DC701CB
:100E00000995C80FD91F015010400115110571F740
:100E1000CE01DF91CF911F910F91FF90EF90DF9066
:100E2000CF900895DC01ED91FC910190F081E02DCF
:100E300009950895CF93DF93EC016115710519F4BD
:100E400020E030E00FC0DB010D900020E9F71197A2
:100E5000A61BB70BE881F9810280F381E02DAD017B
:100E600009959C01C901DF91CF9108950E941A074D
:100E7000089597FB092E07260AD077FD04D02ED0BF
:100E800006D000201AF4709561957F4F0895F6F70B
:100E9000909581959F4F0895A1E21A2EAA1BBB1B26
:100EA000FD010DC0AA1FBB1FEE1FFF1FA217B30736
:100EB000E407F50720F0A21BB30BE40BF50B661F4C
:100EC000771F881F991F1A9469F760957095809510
:100ED00090959B01AC01BD01CF010895AA1BBB1BDE
:100EE00051E107C0AA1FBB1FA617B70710F0A61B2A
:100EF000B70B881F991F5A95A9F780959095BC014B
:100F0000CD010895EE0FFF1F0590F491E02D099497
:040F1000F894FFCF83
:100F140077616974696E6720666F72206770730009
:100F24000100FF00000000000000000000000000BD
:100F340000000000000000000000000000000000AD
:100F4400000000000000000000000000000000009D
:100F5400000000000000000000000000000000008D
:100F6400000000000000000000000000000000007D
:100F7400000000000000000000000000000000006D
:100F8400000000000000000000000000000000005D
:100F9400000000000000000000000000000000004D
:100FA400000000000000000000000000000000003D
:100FB400000000000000000000000000000000002D
:100FC400000000000000000000000000000000001D
:100FD400000000000000000000000000000000000D
:100FE40000000000000000000000000000000000FD
:100FF40000000000000000000000000000000000ED
:1010040000000000000000000000000000000000DC
:1010140000000000000000000000000000000000CC
:1010240000000000000000000000000000000000BC
:1010340000000000000000000000000000000000AC
:10104400000000000000000000000000000000009C
:101054000000000B02E806000040001400540000E9
:101064000000004006E806D3050706E70530060041
:00000001FF
